{
  "contractName": "Shipping",
  "abi": [
    {
      "inputs": [],
      "stateMutability": "nonpayable",
      "type": "constructor"
    },
    {
      "anonymous": false,
      "inputs": [
        {
          "indexed": false,
          "internalType": "string",
          "name": "description",
          "type": "string"
        }
      ],
      "name": "LogNewAlert",
      "type": "event"
    },
    {
      "inputs": [],
      "name": "numupdates",
      "outputs": [
        {
          "internalType": "uint256",
          "name": "",
          "type": "uint256"
        }
      ],
      "stateMutability": "view",
      "type": "function",
      "constant": true
    },
    {
      "inputs": [],
      "name": "shipstatus",
      "outputs": [
        {
          "internalType": "enum Shipping.ShipmentStatus",
          "name": "",
          "type": "uint8"
        }
      ],
      "stateMutability": "view",
      "type": "function",
      "constant": true
    },
    {
      "inputs": [],
      "name": "Shipped",
      "outputs": [],
      "stateMutability": "nonpayable",
      "type": "function"
    },
    {
      "inputs": [],
      "name": "Delivered",
      "outputs": [],
      "stateMutability": "nonpayable",
      "type": "function"
    },
    {
      "inputs": [],
      "name": "Status",
      "outputs": [
        {
          "internalType": "string",
          "name": "",
          "type": "string"
        }
      ],
      "stateMutability": "view",
      "type": "function",
      "constant": true
    }
  ],
  "bytecode": "0x608060405234801561001057600080fd5b5060008060006101000a81548160ff0219169083600281111561003657610035610048565b5b02179055506000600181905550610077565b7f4e487b7100000000000000000000000000000000000000000000000000000000600052602160045260246000fd5b610637806100866000396000f3fe608060405234801561001057600080fd5b50600436106100575760003560e01c80632b5d9e061461005c57806345f09ce91461007a578063779822f7146100985780637e59301e146100a257806390cfabee146100ac575b600080fd5b6100646100ca565b6040516100719190610406565b60405180910390f35b6100826100dd565b60405161008f91906104ba565b60405180910390f35b6100a0610101565b005b6100aa6101a1565b005b6100b461020c565b6040516100c191906104f5565b60405180910390f35b600060019054906101000a900460ff1681565b606060008060009054906101000a900460ff1690506100fb81610212565b91505090565b60026000806101000a81548160ff021916908360028111156101265761012561038f565b5b02179055506002600060016101000a81548160ff021916908360028111156101515761015061038f565b5b021790555060018054610164919061053f565b6001819055507fca75c80642b93c980135b8355995abae3ab06033dc81f956b3824323b4903ef5604051610197906105e1565b60405180910390a1565b60016000806101000a81548160ff021916908360028111156101c6576101c561038f565b5b02179055506001600060016101000a81548160ff021916908360028111156101f1576101f061038f565b5b021790555060018054610204919061053f565b600181905550565b60015481565b60608160028111156102275761022661038f565b5b6000600281111561023b5761023a61038f565b5b141561027e576040518060400160405280600781526020017f50656e64696e6700000000000000000000000000000000000000000000000000815250905061038a565b8160028111156102915761029061038f565b5b600160028111156102a5576102a461038f565b5b14156102e8576040518060400160405280600781526020017f5368697070656400000000000000000000000000000000000000000000000000815250905061038a565b8160028111156102fb576102fa61038f565b5b60028081111561030e5761030d61038f565b5b1415610351576040518060400160405280600981526020017f44656c6976657265640000000000000000000000000000000000000000000000815250905061038a565b6040518060400160405280600781526020017f556e6b6e6f776e0000000000000000000000000000000000000000000000000081525090505b919050565b7f4e487b7100000000000000000000000000000000000000000000000000000000600052602160045260246000fd5b600381106103cf576103ce61038f565b5b50565b60008190506103e0826103be565b919050565b60006103f0826103d2565b9050919050565b610400816103e5565b82525050565b600060208201905061041b60008301846103f7565b92915050565b600081519050919050565b600082825260208201905092915050565b60005b8381101561045b578082015181840152602081019050610440565b8381111561046a576000848401525b50505050565b6000601f19601f8301169050919050565b600061048c82610421565b610496818561042c565b93506104a681856020860161043d565b6104af81610470565b840191505092915050565b600060208201905081810360008301526104d48184610481565b905092915050565b6000819050919050565b6104ef816104dc565b82525050565b600060208201905061050a60008301846104e6565b92915050565b7f4e487b7100000000000000000000000000000000000000000000000000000000600052601160045260246000fd5b600061054a826104dc565b9150610555836104dc565b9250827fffffffffffffffffffffffffffffffffffffffffffffffffffffffffffffffff0382111561058a57610589610510565b5b828201905092915050565b7f596f7572207061636b6167652068617320617272697665640000000000000000600082015250565b60006105cb60188361042c565b91506105d682610595565b602082019050919050565b600060208201905081810360008301526105fa816105be565b905091905056fea264697066735822122091908e72907f099771b5c930b8ba154936399fd87d306a5d2f81f2e1a453778e64736f6c634300080a0033",
  "immutableReferences": {},
  "source": "// SPDX-License-Identifier: MIT\npragma solidity >=0.7.0 <0.9.0;\n\ncontract Shipping {\n    // Our predefined values for shipping listed as enums\n    enum ShippingStatus {\n        Pending,\n        Shipped,\n        Delivered\n    }\n    enum ShipmentStatus {\n        Pending,\n        Shipped,\n        Delivered\n    }\n\n    // Save enum ShippingStatus in variable status\n    ShippingStatus private status;\n    ShipmentStatus public shipstatus;\n    uint256 public numupdates;\n\n    // Event to launch when package has arrived\n    event LogNewAlert(string description);\n\n    // This initializes our contract state (sets enum to Pending once the program starts)\n    constructor() {\n        status = ShippingStatus.Pending;\n        numupdates = 0;\n    }\n\n    // Function to change to Shipped\n    function Shipped() public {\n        status = ShippingStatus.Shipped;\n        shipstatus = ShipmentStatus.Shipped;\n        numupdates = numupdates + 1;\n    }\n\n    // Function to change to Delivered\n    function Delivered() public {\n        status = ShippingStatus.Delivered;\n        shipstatus = ShipmentStatus.Delivered;\n        numupdates = numupdates + 1;\n        emit LogNewAlert('Your package has arrived');\n    }\n\n    // Function to get the status of the shipping\n    function getStatus(ShippingStatus _status)\n        internal\n        pure\n        returns (string memory)\n    {\n        // Check the current status and return the correct name\n        if (ShippingStatus.Pending == _status) return 'Pending';\n        if (ShippingStatus.Shipped == _status) return 'Shipped';\n        if (ShippingStatus.Delivered == _status) return 'Delivered';\n        return 'Unknown';\n    }\n\n    // Get status of your shipped item\n    function Status() public view returns (string memory) {\n        ShippingStatus _status = status;\n        return getStatus(_status);\n    }\n}\n",
  "sourcePath": "/media/pawan/Backup1/Blockchain/shipping/contracts/Shipping.sol",
  "compiler": {
    "name": "solc",
    "version": "0.8.10+commit.fc410830.Emscripten.clang"
  },
  "schemaVersion": "3.4.3",
  "updatedAt": "2021-11-15T15:52:29.060Z",
  "networkType": "ethereum",
  "devdoc": {
    "kind": "dev",
    "methods": {},
    "version": 1
  },
  "userdoc": {
    "kind": "user",
    "methods": {},
    "version": 1
  }
}